:10000000C1EF05F00000000000EF00F0000000006C
:0A0010000000000000000000F3D71C
:10001C0000018F51000A2EE012D0818A2BD08188EA
:10002C0029D0818627D0818425D0818223D08180DC
:10003C0021D082821FD082861DD082881BD08E5107
:10004C00000AEBE08E51010AEAE08E51020AE9E067
:10005C008E51030AE8E08E51040AE7E08E51050A3E
:10006C00E6E08E51060AE5E08E51070AE4E08E5177
:06007C00080AE3E0120097
:100082001AD0826A34D0DF0E806E31D0FB0E806EC1
:100092002ED0BF0E806E2BD0EF0E806E28D0FD0EBC
:1000A200806E25D07F0E806E22D0F70E806E1FD01C
:1000B200FE0E806E1CD000018051000AE2E08051E9
:1000C200010AE1E08051020AE1E08051030AE1E025
:1000D2008051040AE1E08051050AE1E08051060AFC
:1000E200E1E08051070AE1E08051080AE1E01200F4
:0C00F200FF0E806E816A010E826E12000B
:1000FE007EC01AF07FC01BF0000E1C6E1D6E010E2E
:04010E001F6E12004E
:100112003C6A3B6A3B50020820E33D6A3D500808B6
:100122001AE3E6DF3BC080F0ABDF3DC08EF0590E34
:10013200E96E000EEA6E3C50E926D8B0EA2AEECF0C
:100142008FF06BDF9F0E0D6E0D2EFED700000000AC
:100152003C2A3D2AE3D73B2ADDD73C6A030E3B6E9D
:100162003B50050820E33D6A3D5008081AE3C0DF12
:100172003BC080F085DF3DC08EF03E0EE96E000E82
:10018200EA6E3C50E926D8B0EA2AEECF8FF045DF7E
:100192004F0E0D6E0D2EFED7000000003C2A3D2AA8
:1001A200E3D73B2ADDD73C6A060E3B6E3B5008087C
:1001B20020E33D6A3D5008081AE39ADF3BC080F015
:1001C2005FDF3DC08EF0200EE96E000EEA6E3C50FD
:1001D200E926D8B0EA2AEECF8FF01FDF4F0E0D6E60
:1001E2000D2EFED7000000003C2A3D2AE3D73B2A11
:0401F200DDD7120043
:1001F6000134083609360450085E0550D8A0053C7F
:10020600095E003601360F0E0C6E013408360936CB
:10021600045000A006D0085E0550D8A0053C095E33
:1002260005D008260550D8B0053C0926003601360B
:100236000C2EEBD700B006D0045008260550D8B0D7
:08024600053C0926000012002E
:10024E00220E0C6E086A096A0A6A0B6A0C06D8B48A
:10025E001FD0D8900B320A320932083203320232E2
:10026E0001320032D8A0F2D70C06D8B409D004500F
:10027E0008260550092206500A2207500B22EAD7FB
:10028E00045008260550092206500A2207500B2258
:02029E0012004C
:1002A00081C015F082C016F083C017F084C018F02A
:1002B0003B6A3B501A0822E3590EE16E000EE26ED3
:1002C0003B50E126D8B0E22A3BC004F015C000F054
:1002D00016C001F017C002F018C003F0045007E088
:1002E0000332023201320032039EFF0FF8D7010EB3
:1002F0000014006E00C0E6FF3B2ADBD785C015F076
:1003000086C016F087C017F088C018F03B6A3B50D3
:100310001A0822E33E0EE16E000EE26E3B50E1262B
:10032000D8B0E22A3BC004F015C000F016C001F0BE
:1003300017C002F018C003F0045007E00332023285
:1003400001320032039EFF0FF8D7010E0014006E39
:1003500000C0E6FF3B2ADBD789C015F08AC016F043
:100360008BC017F08CC018F03B6A3B501A0822E390
:10037000200EE16E000EE26E3B50E126D8B0E22A7C
:100380003BC004F015C000F016C001F017C002F029
:1003900018C003F0045007E0033202320132003289
:1003A000039EFF0FF8D7010E0014006E00C0E6FF99
:1003B0003B2ADBD71E6A00018D511E5C03E2A9DED9
:0603C0001E2AF9D712000D
:1003C6000450000A08E10550000A05E1FF0E006E20
:1003D6007F0E016E57D00D6A096A086A0150001037
:1003E600D8B4000C015005180A6E0ABE0D1E0B6A21
:1003F60005AE05D0041E051E042AD8B4052A01AE92
:1004060005D0001E011E002AD8B4012A015005108D
:100416000A6E0ABE10D0ECDE0BB020D00DAE000C7A
:10042600001E011E002AD8B4012A081E091E082A29
:10043600D8B4092A000C05AE0DD001BE07D0015074
:10044600096E0050086E016A006AE8D7016A006A00
:10045600002A000C011E001E0B2ADDD7082AD8B47C
:10046600092A0450085CD8A4D9D70550095CD8A439
:10047600D5D7096A086A002AD8B4012A01AECED7B0
:060486000000FF0C120053
:10048C001F5205E1010E7E6E000E7F6E32DE1AC029
:10049C0000F01BC001F01CC002F01DC003F06D0E7B
:1004AC00046E4E0E056EC60E066E410E076EC9DE4C
:1004BC00390E0024056E300E0120066E000E02204F
:1004CC00076E000E0320086E07C000F008C001F094
:1004DC00000E08BEFF0E026E036EFF0E00167F0E9E
:1004EC000116000E0216031600C01AF001C01BF014
:0A04FC0002C01CF003C01DF0120046
:100506000900F5CFE6FF0006FBE10106F9E112005E
:10051600800E006E800E7718005C02E176500008AF
:10052600D8B00CD1B0DF030E046E000E056E48DFA6
:1005360008C000F009C001F000C07CF001C07DF0E9
:10054600E4D0A1DF1B0E046E000E056E39DF08C075
:1005560000F009C001F0000E786E000E796E000EF4
:100566007A6E040E7B6E005009E07B327A32793265
:1005760078327B9E7BBC7B8EFF0FF6D784DF1B0E0B
:10058600046E000E056E1CDF08C000F009C001F005
:10059600000E0001816F000E826F000E836F040E45
:1005A600846F005009E08433833382338133849F20
:1005B60084BD848FFF0FF6D7896B8A6B8B6B8C6B30
:1005C600030E8D6F78C085F079C086F07AC087F00B
:1005D6007BC088F062DE8ADDACD055DF1B0E046E70
:1005E600000E056EEDDE08C000F009C001F0000E39
:1005F600786E000E796E000E7A6E040E7B6E0050D9
:1006060009E07B327A32793278327B9E7BBC7B8EF4
:10061600FF0FF6D738DF1B0E046E000E056ED0DE18
:1006260008C000F009C001F0000E0001856F000E41
:10063600866F000E876F040E886F005009E08833BE
:10064600873386338533889F88BD888FFF0FF6D71B
:10065600816B826B836B846B030E8D6F78C089F020
:1006660079C08AF07AC08BF07BC08CF016DE3EDD56
:1006760060D009DF1B0E046E000E056EA1DE08C0F9
:1006860000F009C001F0000E786E000E796E000EC3
:100696007A6E040E7B6E005009E07B327A32793234
:1006A60078327B9E7BBC7B8EFF0FF6D7ECDE1B0E73
:1006B600046E000E056E84DE08C000F009C001F06D
:1006C600000E0001816F000E826F000E836F040E14
:1006D600846F005009E08433833382338133849FEF
:1006E60084BD848FFF0FF6D7856B866B876B886B0F
:1006F600030E8D6F78C089F079C08AF07AC08BF0CE
:100706007BC08CF0CADDF2DC14D0000E7D1802E14D
:10071600000E7C18D8B415D7000E7D1802E1010E24
:100726007C18D8B45AD7000E7D1802E1020E7C1848
:0E073600A0E0010E765E000E775AEAD61200A1
:10074400800E006E800E7718005C02E1765000087F
:1007540030E2FF0E0001816FFF0E826F030E836F84
:10076400000E846F000E856FFE0E866F030E876F7A
:10077400000E886F000E896FFE0E8A6FFF0E8B6F5E
:10078400070E8C6F140E8D6F89DDB1DC030E0B6EBA
:100794008A0E0C6E550E0D6E0D2EFED70C2EFCD748
:1007A4000B2EFAD700000000010E765E000E775A79
:0407B400C7D7120091
:1007B800800E006E800E7718005C02E1765000080B
:1007C800D8B0AED00001816B826B836B846B000E56
:1007D800856F010E866F010E876F010E886F896B1A
:1007E8008A6B8B6B8C6B080E8D6F56DD7EDC00017F
:1007F800816B826B836B846B800E856F800E866F36
:10080800200E876F000E886F896B8A6B8B6B8C6BE1
:10081800080E8D6F41DD69DC0001816B826B836B93
:10082800846B400E856F100E866F040E876F000E66
:10083800886F896B8A6B8B6B8C6B080E8D6F2CDDC8
:1008480054DC0001816B826B836B846B080E856FAF
:10085800020E866F080E876F000E886F896B8A6B91
:100868008B6B8C6B080E8D6F17DD3FDC0001816B85
:10087800826B836B846B010E856F040E866F100E7E
:10088800876F000E886F896B8A6B8B6B8C6B080E79
:100898008D6F02DD2ADC0001816B826B836B846BB8
:1008A800020E856F080E866F800E876F000E886FA8
:1008B800896B8A6B8B6B8C6B080E8D6FEDDC15DC8E
:1008C8000001816B826B836B846B040E856F400E15
:1008D800866F000E876F040E886F896B8A6B8B6B2F
:1008E8008C6B080E8D6FD8DC00DC0001816B826B8D
:1008F800836B846B200E856F000E866F020E876FE8
:10090800020E886F896B8A6B8B6B8C6B080E8D6FF0
:10091800C3DC79EC00F0010E765E000E775A48D7FA
:020928001200BB
:10092A00800E006E800E7718005C02E17650000897
:10093A00D8B021D1196A020E195C59E2FF0E0001E2
:10094A00816F010E826F000E836F846F856B866BD9
:10095A00876B886B896B8A6B8B6B8C6B080E8D6FC0
:10096A009ADC79EC00F0000E0001816FFE0E826FB6
:10097A00030E836F000E846F856B866B876B886BA3
:10098A00896B8A6B8B6B8C6B080E8D6F84DC79ECB0
:10099A0000F0000E0001816F000E826FFC0E836F63
:1009AA00070E846F856B866B876B886B896B8A6B86
:1009BA008B6B8C6B080E8D6F6EDC79EC00F0000E81
:1009CA000001816FFE0E826F030E836F000E846F2B
:1009DA00856B866B876B886B896B8A6B8B6B8C6B71
:1009EA00080E8D6F58DC79EC00F0192AA4D7196A21
:1009FA00020E195C5AE20001816B826B836B846B75
:100A0A00FF0E856F010E866F000E876F886F896BE8
:100A1A008A6B8B6B8C6B080E8D6F3DDC79EC00F06A
:100A2A000001816B826B836B846B000E856FFE0EF7
:100A3A00866F030E876F000E886F896B8A6B8B6BCC
:100A4A008C6B080E8D6F27DC79EC00F00001816B4E
:100A5A00826B836B846B000E856F000E866FFC0EB3
:100A6A00876F070E886F896B8A6B8B6B8C6B080E8E
:100A7A008D6F11DC79EC00F00001816B826B836B66
:100A8A00846B000E856FFE0E866F030E876F000E55
:100A9A00886F896B8A6B8B6B8C6B080E8D6F50EC31
:100AAA0001F079EC00F0192AA3D7196A020E195C31
:100ABA005DE20001816B826B836B846B856B866B55
:100ACA00876B886BFF0E896F010E8A6F000E8B6F22
:100ADA008C6F080E8D6F50EC01F079EC00F000017C
:100AEA00816B826B836B846B856B866B876B886B80
:100AFA00000E896FFE0E8A6F030E8B6F000E8C6FCD
:100B0A00080E8D6F50EC01F079EC00F00001816B5A
:100B1A00826B836B846B856B866B876B886B000E2D
:100B2A00896F000E8A6FFC0E8B6F070E8C6F080E92
:100B3A008D6F50EC01F079EC00F00001816B826B53
:100B4A00836B846B856B866B876B886B000E896FF2
:100B5A00FE0E8A6F030E8B6F000E8C6F080E8D6F60
:100B6A0050EC01F079EC00F0192AA0D7010E765E5C
:080B7A00000E775AD5D61200D7
:100B8200720ED36E926A936A946A79EC00F07DDCFD
:100B9200040E046E000E056E15DC08C000F009C0DC
:100BA20001F000C074F001C075F018D0640E766ECA
:100BB200000E776EAFDC2AD0040E766E000E776ED2
:100BC200FADD24D0020E766E000E776EADDE1ED0F8
:100BD2000A0E766E000E776EB4DD18D0000E751810
:100BE20002E1000E7418E2E0000E751802E1010E37
:100BF2007418E2E0000E751802E1020E7418E2E0C9
:100C0200000E751802E1030E7418E2E0C0D7FFD798
:020000040030CA
:0D00010008191EFF0381FF0FC00FE00F4024
:00000001FF
