:020000040000FA
:1000000010EF0FF0D9CFE5FFE1CFD9FF00C0E5FF3A
:10001000020EDBCF00F00050E56E000EE56E000E24
:10002000E56E000EE56E000EE56E000EE56E000E4C
:10003000E56E000EE56E000EE56E000EE56E000E3C
:10004000E56E000EE56E010EE56E3EEC09F00D0E5C
:10005000E1260050E56E000EE56E000EE56E000E26
:10006000E56E000EE56E000EE56E000EE56E000E0C
:10007000E56E030EE56E000EE56E000EE56E000EF9
:10008000E56E000EE56E3EEC09F00D0EE126005027
:10009000E56E000EE56E000EE56E000EE56E070ED5
:1000A000E56E000EE56E000EE56E000EE56E000ECC
:1000B000E56E000EE56E000EE56E000EE56E070EB5
:1000C000E56E3EEC09F00D0EE1260050E56E000EE7
:1000D000E56E000EE56E000EE56E270EE56E000E75
:1000E000E56E000EE56E000EE56E000EE56E000E8C
:1000F000E56E000EE56E000EE56E000EE56E3EEC60
:1001000009F00D0EE1260050E56E000EE56E000EC2
:10011000E56E000EE56E370EE56E000EE56E000E24
:10012000E56E000EE56E370EE56E000EE56E000E14
:10013000E56E000EE56E000EE56E3EEC09F00D0E6C
:10014000E1260050E56E000EE56E000EE56E000E35
:10015000E56E000EE56E000EE56E000EE56E000E1B
:10016000E56E000EE56E000EE56E000EE56E000E0B
:10017000E56E3F0EE56E3EEC09F00D0EE1260050F7
:10018000E56E000EE56E000EE56E000EE56E000EEB
:10019000E56E000EE56E000EE56E000EE56E7F0E5C
:1001A000E56E000EE56E000EE56E000EE56E7F0E4C
:1001B000E56E3EEC09F00D0EE1260050E56E000EF6
:1001C000E56E000EE56E000EE56EFF0EE56E000EAC
:1001D000E56E000EE56E000EE56E000EE56E000E9B
:1001E000E56E000EE56E000EE56E000EE56E3EEC6F
:1001F00009F00D0EE1260050E56E000EE56E000ED2
:10020000E56E010EE56EFF0EE56E000EE56E000E6A
:10021000E56E000EE56E000EE56E000EE56E000E5A
:10022000E56E010EE56EFF0EE56E3EEC09F00D0E7B
:10023000E1260050E56E000EE56E000EE56E000E44
:10024000E56E000EE56E000EE56E020EE56E010E27
:10025000E56EFF0EE56E000EE56E020EE56E010E18
:10026000E56EFF0EE56E3EEC09F00D0EE126005046
:10027000E56E000EE56E030EE56E010EE56EFF0EF7
:10028000E56E000EE56E000EE56E000EE56E000EEA
:10029000E56E000EE56E000EE56E000EE56E000EDA
:1002A000E56E3EEC09F00D0EE1260050E56E000E05
:1002B000E56E000EE56E000EE56E000EE56E000EBA
:1002C000E56E000EE56E000EE56E000EE56E000EAA
:1002D000E56E030EE56E810EE56EFF0EE56E3EECFB
:1002E00009F00D0EE1260050E56E000EE56E030EDE
:1002F000E56E910EE56EFF0EE56E000EE56E000EEA
:10030000E56E000EE56E000EE56E000EE56E000E69
:10031000E56E000EE56E000EE56E3EEC09F00D0E8A
:10032000E1260050E56E000EE56E000EE56E000E53
:10033000E56E000EE56E000EE56E030EE56EB10E85
:10034000E56EFF0EE56E000EE56E030EE56EB10E76
:10035000E56EFF0EE56E3EEC09F00D0EE126005055
:10036000E56E000EE56E030EE56EF10EE56EFF0E16
:10037000E56E000EE56E000EE56E000EE56E000EF9
:10038000E56E000EE56E000EE56E000EE56E000EE9
:10039000E56E3EEC09F00D0EE1260050E56E000E14
:1003A000E56E000EE56E000EE56E000EE56E000EC9
:1003B000E56E000EE56E000EE56E000EE56E000EB9
:1003C000E56E030EE56EF90EE56EFF0EE56E3EEC92
:1003D00009F00D0EE1260050E56E000EE56E030EED
:1003E000E56EFD0EE56EFF0EE56E000EE56E000E8D
:1003F000E56E000EE56E000EE56E000EE56E030E76
:10040000E56EFD0EE56EFF0EE56E3EEC09F00D0E9D
:10041000E1260050E56E000EE56E000EE56E000E62
:10042000E56E000EE56E000EE56E030EE56EFF0E46
:10043000E56EFF0EE56E000EE56E000EE56E000E39
:10044000E56E000EE56E3EEC09F00D0EE126005063
:10045000E56E000EE56E070EE56EFF0EE56EFF0E13
:10046000E56E000EE56E000EE56E000EE56E000E08
:10047000E56E000EE56E000EE56E000EE56E000EF8
:10048000E56E3EEC09F00D0EE1260050E56E000E23
:10049000E56E000EE56E000EE56E000EE56E000ED8
:1004A000E56E0F0EE56EFF0EE56EFF0EE56E000EBB
:1004B000E56E000EE56E000EE56E000EE56E3EEC9C
:1004C00009F00D0EE1260050E56E000EE56E1F0EE0
:1004D000E56EFF0EE56EFF0EE56E000EE56E000E9A
:1004E000E56E000EE56E000EE56E000EE56E1F0E69
:1004F000E56EFF0EE56EFF0EE56E3EEC09F00D0EAB
:10050000E1260050E56E000EE56E000EE56E000E71
:10051000E56E000EE56E000EE56E9F0EE56EFF0EB9
:10052000E56EFF0EE56E000EE56E000EE56E000E48
:10053000E56E000EE56E3EEC09F00D0EE126005072
:10054000E56E000EE56EDF0EE56EFF0EE56EFF0E4A
:10055000E56E000EE56E000EE56E000EE56E000E17
:10056000E56E000EE56E000EE56E000EE56E000E07
:10057000E56E3EEC09F00D0EE1260050E56E000E32
:10058000E56EFF0EE56EFF0EE56EFF0EE56E000EEA
:10059000E56E000EE56E000EE56E000EE56E000ED7
:1005A000E56EFF0EE56EFF0EE56EFF0EE56E3EECAE
:1005B00009F00D0EE1260050E56E010EE56EFF0E0E
:1005C000E56EFF0EE56EFF0EE56E000EE56E000EA9
:1005D000E56E000EE56E000EE56E010EE56EFF0E97
:1005E000E56EFF0EE56EFF0EE56E3EEC09F00D0EBA
:1005F000E1260050E56E000EE56E000EE56E000E81
:10060000E56E000EE56E030EE56EFF0EE56EFF0E65
:10061000E56EFF0EE56E000EE56E000EE56E000E57
:10062000E56E000EE56E3EEC09F00D0EE126005081
:10063000E56E070EE56EFF0EE56EFF0EE56EFF0E32
:10064000E56E000EE56E000EE56E000EE56E000E26
:10065000E56E000EE56E000EE56E000EE56E000E16
:10066000E56E3EEC09F00D0EE1267FEC11F0005036
:10067000E56E070EE56EFF0EE56EFF0EE56EFF0EF2
:10068000E56E070EE56EFF0EE56EFF0EE56EFF0EE2
:10069000E56E070EE56EFF0EE56EFF0EE56EFF0ED2
:1006A000E56E3EEC09F00D0EE1267FEC11F0000E38
:1006B000E56E640EE56E95EC10F0E652E6520050E1
:1006C000E56E070EE56EFF0EE56EFF0EE56EFF0EA2
:1006D000E56E070EE56EFF0EE56EFF0EE56EFF0E92
:1006E000E56E070EE56EFF0EE56EFF0EE56EFF0E82
:1006F000E56E3EEC09F00D0EE1267FEC11F0000EE8
:10070000E56E640EE56E95EC10F0E652E652005090
:10071000E56E070EE56EFF0EE56EFF0EE56EFF0E51
:10072000E56E070EE56EFF0EE56EFF0EE56EFF0E41
:10073000E56E070EE56EFF0EE56EFF0EE56EFF0E31
:10074000E56E3EEC09F00D0EE1267FEC11F0000E97
:10075000E56E640EE56E95EC10F0E652E652005040
:10076000E56E070EE56EFF0EE56EFF0EE56EFF0E01
:10077000E56E070EE56EFF0EE56EFF0EE56EFF0EF1
:10078000E56E070EE56EFF0EE56EFF0EE56EFF0EE1
:10079000E56E3EEC09F00D0EE1267FEC11F0000E47
:1007A000E56E640EE56E95EC10F0E652E652E4CF8D
:1007B00000F0E4CFD9FF1200D9CFE5FFE1CFD9FF98
:1007C00000C0E5FF01C0E5FF02C0E5FF03C0E5FF93
:1007D00004C0E5FF05C0E5FF06C0E5FF07C0E5FF73
:1007E00008C0E5FF09C0E5FF020EDBCF00F0030EF5
:1007F000DBCF01F00150800F800F02E1010E005CA1
:10080000D8A04AEF06F0C1EC10F0026EF3CF03F06F
:10081000F4CF04F0E9CF05F0000EE56E000EE56EB2
:10082000000EE56E030EE56E0550E56E0450E56EB4
:100830000350E56E0250E56E4CEC0CF0026EF3CF07
:1008400003F0F4CF04F0E9CF05F0080EE126D880DC
:1008500005AED890D8B045EF06F00550800F800F58
:1008600008E1000E045C05E1000E035C02E1030EEA
:10087000025CD8B045EF06F0FA6AFB6A0234FA3639
:10088000E834FA36FC0B960FE56E080EFA22000EDD
:10089000FB22E450F96E51EF04F0F8EF04F09FEF03
:1008A00005F0C1EC10F0026EF3CF03F0F4CF04F0CA
:1008B000E9CF05F0000EE56E000EE56E000EE56E68
:1008C0001B0EE56E0550E56E0450E56E0350E56EB7
:1008D0000250E56E4CEC0CF0026EF3CF03F0F4CF57
:1008E00004F0E9CF05F0080EE1260250E96E000E93
:1008F000026E000E036E000E046E040E056EE950CB
:1009000013E00BE6E86CD89005BED88005320432BF
:1009100003320232010FF8E307D0D89002360336D3
:1009200004360536010FFAE3C1EC10F0066EF3CF82
:1009300007F0F4CF08F0E9CF09F0000EE56E000EE5
:10094000E56E000EE56E1B0EE56E0950E56E085073
:10095000E56E0750E56E0650E56E4CEC0CF0066E49
:10096000F3CF07F0F4CF08F0E9CF09F0080EE12645
:100970000650E96E000E066E000E076E000E086E41
:10098000040E096EE95013E00BE6E86CD89009BE3E
:10099000D8800932083207320632010FF8E307D057
:1009A000D8900636073608360936010FFAE3030EEB
:1009B000E56E000EE56E000EE56E000EE56E000EB3
:1009C000E56E0950E56E0850E56E0750E56E06507D
:1009D000E56E0550E56E0450E56E0350E56E02507D
:1009E000E56E3EEC09F00D0EE1267FEC11F04DD1E5
:1009F000C1EC10F0026EF3CF03F0F4CF04F0E9CFB6
:100A000005F0000EE56E000EE56E000EE56E1B0EA5
:100A1000E56E0550E56E0450E56E0350E56E02503C
:100A2000E56E4CEC0CF0026EF3CF03F0F4CF04F063
:100A3000E9CF05F0080EE1260250E96E000E026EC5
:100A4000000E036E000E046E040E056EE95013E0F6
:100A50000BE6E86CD89005BED8800532043203322C
:100A60000232010FF8E307D0D8900236033604367D
:100A70000536010FFAE3C1EC10F0066EF3CF07F074
:100A8000F4CF08F0E9CF09F0000EE56E000EE56E38
:100A9000000EE56E1B0EE56E0950E56E0850E56E22
:100AA0000750E56E0650E56E4CEC0CF0066EF3CF89
:100AB00007F0F4CF08F0E9CF09F0080EE126065060
:100AC000E96E000E066E000E076E000E086E040E34
:100AD000096EE95013E00BE6E86CD89009BED880A7
:100AE0000932083207320632010FF8E307D0D890F6
:100AF0000636073608360936010FFAE3030EE56EAF
:100B00000950E56E0850E56E0750E56E0650E56E3B
:100B10000550E56E0450E56E0350E56E0250E56E3B
:100B2000000EE56E000EE56E000EE56E000EE56E41
:100B30003EEC09F00D0EE1267FEC11F0A6D0C1ECE1
:100B400010F0026EF3CF03F0F4CF04F0E9CF05F01C
:100B5000000EE56E000EE56E000EE56E1B0EE56EF6
:100B60000550E56E0450E56E0350E56E0250E56EEB
:100B70004CEC0CF0026EF3CF03F0F4CF04F0E9CFAD
:100B800005F0080EE1260250E96E000E026E000E1E
:100B9000036E000E046E040E056EE95013E00BE6C2
:100BA000E86CD89005BED880053204320332023298
:100BB000010FF8E307D0D890023603360436053625
:100BC000010FFAE3C1EC10F0066EF3CF07F0F4CF9B
:100BD00008F0E9CF09F0000EE56E000EE56E000E9C
:100BE000E56E1B0EE56E0950E56E0850E56E075088
:100BF000E56E0650E56E4CEC0CF0066EF3CF07F098
:100C0000F4CF08F0E9CF09F0080EE1260650E96EAE
:100C1000000E066E000E076E000E086E040E096EC2
:100C2000E95013E00BE6E86CD89009BED880093291
:100C3000083207320632010FF8E307D0D8900636A3
:100C4000073608360936010FFAE3030EE56E095040
:100C5000E56E0850E56E0750E56E0650E56E000E35
:100C6000E56E000EE56E000EE56E000EE56E0550B9
:100C7000E56E0450E56E0350E56E0250E56E3EEC05
:100C800009F00D0EE1267FEC11F0FF0E0026012287
:100C9000FAEF03F0E4CF09F0E4CF08F0E4CF07F077
:100CA000E4CF06F0E4CF05F0E4CF04F0E4CF03F0A6
:100CB000E4CF02F0E4CF01F0E4CF00F0E4CFD9FFBD
:100CC0001200D9CFE5FFE1CFD9FF00C0E5FF01C099
:100CD000E5FF020EDBCF00F0030EDBCF01F0015089
:100CE000800F800F02E1010E005CD8A09FD10001AF
:100CF000FC6B080EE56E000EE56E000EE56E000E54
:100D0000E56E000EE56E000EE56E000EE56E000E5F
:100D1000E56E000EE56E000EE56E000EE56E010E4E
:100D2000E56EFF0EE56E3EEC09F00D0EE1267FEC60
:100D300011F0080EE56E000EE56E000EE56E000E79
:100D4000E56E000EE56E000EE56E000EE56E000E1F
:100D5000E56E000EE56E000EE56E030EE56EFE0E0E
:100D6000E56E000EE56E3EEC09F00D0EE1267FEC1F
:100D700011F0080EE56E000EE56E000EE56E000E39
:100D8000E56E000EE56E000EE56E000EE56E000EDF
:100D9000E56E000EE56E070EE56EFC0EE56E000ECC
:100DA000E56E000EE56E3EEC09F00D0EE1267FECDF
:100DB00011F0080EE56E000EE56E000EE56E000EF9
:100DC000E56E000EE56E000EE56E000EE56E000E9F
:100DD000E56E000EE56E000EE56E030EE56EFE0E8E
:100DE000E56E000EE56E3EEC09F00D0EE1267FEC9F
:100DF00011F00001FC2B020E0001FC5DD8A079D798
:100E00000001FC6B080EE56E000EE56E000EE56E4F
:100E1000000EE56E000EE56E000EE56E000EE56E4E
:100E2000010EE56EFF0EE56E000EE56E000EE56E3E
:100E3000000EE56E000EE56E3EEC09F00D0EE126AB
:100E40007FEC11F0080EE56E000EE56E000EE56E0B
:100E5000000EE56E000EE56E000EE56E030EE56E0B
:100E6000FE0EE56E000EE56E000EE56E000EE56E00
:100E7000000EE56E000EE56E3EEC09F00D0EE1266B
:100E80007FEC11F0080EE56E000EE56E000EE56ECB
:100E9000000EE56E000EE56E070EE56EFC0EE56ECB
:100EA000000EE56E000EE56E000EE56E000EE56EBE
:100EB000000EE56E000EE56E3EEC09F00D0EE1262B
:100EC0007FEC11F0080EE56E000EE56E000EE56E8B
:100ED000000EE56E000EE56E000EE56E030EE56E8B
:100EE000FE0EE56E000EE56E000EE56E000EE56E80
:100EF000000EE56E000EE56E3EEC09F00D0EE126EB
:100F00007FEC11F00001FC2B020E0001FC5DD8A06B
:100F100079D70001FC6B080EE56E000EE56E000E41
:100F2000E56E010EE56EFF0EE56E000EE56E000E3D
:100F3000E56E000EE56E000EE56E000EE56E000E2D
:100F4000E56E000EE56E000EE56E3EEC09F00D0E4E
:100F5000E1267FEC11F0080EE56E000EE56E030E43
:100F6000E56EFE0EE56E000EE56E000EE56E000EFF
:100F7000E56E000EE56E000EE56E000EE56E000EED
:100F8000E56E000EE56E000EE56E3EEC09F00D0E0E
:100F9000E1267FEC11F0080EE56E070EE56EFC0E03
:100FA000E56E000EE56E000EE56E000EE56E000EBD
:100FB000E56E000EE56E000EE56E000EE56E000EAD
:100FC000E56E000EE56E000EE56E3EEC09F00D0ECE
:100FD000E1267FEC11F0080EE56E000EE56E030EC3
:100FE000E56EFE0EE56E000EE56E000EE56E000E7F
:100FF000E56E000EE56E000EE56E000EE56E000E6D
:10100000E56E000EE56E000EE56E3EEC09F00D0E8D
:10101000E1267FEC11F00001FC2B020E0001FC5DCB
:10102000D8A079D7FF0E0026012259D6E4CF01F0CF
:10103000E4CF00F0E4CFD9FF1200D9CFE5FFE1CF34
:10104000D9FF00C0E5FF01C0E5FF020EDBCF00F0D5
:10105000030EDBCF01F00150800F800F02E1010E83
:10106000005CD8A004D1080EE56E000EE56E000EFF
:10107000E56E000EE56E000EE56E010EE56E010EEA
:10108000E56E010EE56E000EE56E000EE56E000EDB
:10109000E56E000EE56E000EE56E3EEC09F00D0EFD
:1010A000E1267FEC11F0080EE56E000EE56E000EF5
:1010B000E56E000EE56E000EE56E000EE56E200E8C
:1010C000E56E800EE56E800EE56E000EE56E000E9C
:1010D000E56E000EE56E000EE56E3EEC09F00D0EBD
:1010E000E1267FEC11F0080EE56E000EE56E000EB5
:1010F000E56E000EE56E000EE56E000EE56E040E68
:10110000E56E100EE56E400EE56E000EE56E000E0B
:10111000E56E000EE56E000EE56E3EEC09F00D0E7C
:10112000E1267FEC11F0080EE56E000EE56E000E74
:10113000E56E000EE56E000EE56E000EE56E080E23
:10114000E56E020EE56E080EE56E000EE56E000E11
:10115000E56E000EE56E000EE56E3EEC09F00D0E3C
:10116000E1267FEC11F0080EE56E000EE56E000E34
:10117000E56E000EE56E000EE56E000EE56E100EDB
:10118000E56E040EE56E010EE56E000EE56E000ED6
:10119000E56E000EE56E000EE56E3EEC09F00D0EFC
:1011A000E1267FEC11F0080EE56E000EE56E000EF4
:1011B000E56E000EE56E000EE56E000EE56E800E2B
:1011C000E56E080EE56E020EE56E000EE56E000E91
:1011D000E56E000EE56E000EE56E3EEC09F00D0EBC
:1011E000E1267FEC11F0080EE56E000EE56E000EB4
:1011F000E56E000EE56E000EE56E040EE56E000E67
:10120000E56E400EE56E040EE56E000EE56E000E16
:10121000E56E000EE56E000EE56E3EEC09F00D0E7B
:10122000E1267FEC11F0080EE56E000EE56E000E73
:10123000E56E000EE56E000EE56E020EE56E020E26
:10124000E56E000EE56E200EE56E000EE56E000EFA
:10125000E56E000EE56E000EE56E3EEC09F00D0E3B
:10126000E1267FEC11F0FF0E00260122F4D6E4CF38
:1012700001F0E4CF00F0E4CFD9FF1200D9CFE5FFB1
:10128000E1CFD9FF00C0E5FF01C0E5FF02C0E5FFE7
:1012900003C0E5FF04C0E5FF05C0E5FF06C0E5FFAC
:1012A00007C0E5FF08C0E5FF09C0E5FF0AC0E5FF8C
:1012B0000BC0E5FF0CC0E5FF0DC0E5FF0EC0E5FF6C
:1012C000020EDBCFD6F0030EDBCFD7F0040EDBCF60
:1012D000D8F0050EDBCFD9F0060EDBCF00F0070EFD
:1012E000DBCF01F0080EDBCF02F0090EDBCF03F0FD
:1012F0000A0EDBCF04F00B0EDBCF05F00C0EDBCFBC
:1013000006F00D0EDBCF07F00E0EDBCF08F000016C
:10131000F96B800E0001F925096E0A6A000E0A2297
:10132000D6C00BF0D7C00CF0D8C00DF0D9C00EF06D
:101330000001F95108E0E86CD8900E320D320C3201
:101340000B32010FFAE3010E0B160C6A0D6A0E6ADE
:1013500009C0E9FF0AC0EAFF0BC0EFFF0001F92B4B
:101360001B0E0001F95DD5E300C0D6F001C0D7F037
:1013700002C0D8F003C0D9F00001F96B9B0E000148
:10138000F925006E016A000E0122D6C002F0D7C016
:1013900003F0D8C009F0D9C00AF00001F95108E003
:1013A000E86CD8900A32093203320232010FFAE3B4
:1013B000010E0216036A096A0A6A00C0E9FF01C049
:1013C000EAFF02C0EFFF0001F92B1B0E0001F95DDF
:1013D000D5E304C0D6F005C0D7F006C0D8F007C0EA
:1013E000D9F00001F96BB60E0001F925006E016A13
:1013F000000E0122D6C002F0D7C003F0D8C004F01E
:10140000D9C005F00001F95108E0E86CD890053228
:10141000043203320232010FFAE3010E0216036AAC
:10142000046A056A00C0E9FF01C0EAFF02C0EFFFDD
:101430000001F92B1B0E0001F95DD5E30001FB6BE8
:1014400008500001FB5D05E254EC0BF00001FB2BA2
:10145000F7D7E4CF0EF0E4CF0DF0E4CF0CF0E4CFFB
:101460000BF0E4CF0AF0E4CF09F0E4CF08F0E4CFCA
:1014700007F0E4CF06F0E4CF05F0E4CF04F0E4CFCA
:1014800003F0E4CF02F0E4CF01F0E4CF00F0E4CFCA
:10149000D9FF1200D9CFE5FFE1CFD9FF00C0E5FFAA
:1014A00001C0E5FF02C0E5FF03C0E5FF04C0E5FFA2
:1014B00005C0E5FF06C0E5FF07C0E5FF020EDBCF74
:1014C00000F0030EDBCF01F0040EDBCF02F0050EBF
:1014D000DBCF03F0060EDBCF04F0070EDBCF05F009
:1014E000080EDBCF06F0090EDBCF07F0005000013D
:1014F000DE6F0150DF6F0250E06F0350E16F045068
:101500000001E26F0550E36F0650E46F0750E56F8E
:101510000001DE510001E403F4CF01F0F3CF00F04D
:1015200000500001E86F0150E96F0001DE51000139
:10153000E203F4CF01F0F3CF00F000500001E66FBA
:101540000150E76F0001E1510001E203F3CF00F029
:101550000001E95100260050E96F0001E05100014F
:10156000E303F3CF00F00001E95100260050E96FDA
:101570000001E0510001E203F4CF01F0F3CF00F0ED
:101580000001E8510026E95101220050E86F0150A6
:10159000E96F0001DF510001E303F4CF01F0F3CF65
:1015A00000F00001E8510026E95101220050E86FE7
:1015B0000150E96F0001DF510001E403F3CF00F0B7
:1015C00000500001ED6F0001DF510001E203F4CF94
:1015D00001F0F3CF00F000500001EB6F0150EC6F11
:1015E0000001DE510001E503F3CF00F000500001DF
:1015F000F16F0001DE510001E303F4CF01F0F3CFFE
:1016000000F000500001EF6F0150F06F0001EA6B35
:101610000001EE6B0001EA510001E625006E0001B9
:10162000EB510001E721016E0001EC510001E821BE
:10163000026E0001ED510001E921036E0050E66FDA
:101640000150E76F0250E86F0350E96F0001EE515F
:101650000001E625006E0001EF510001E721016E57
:101660000001F0510001E821026E0001F15100017A
:10167000E921036E03C0E9FF02C0F4FF01C0F3FFDC
:101680000050E4CF07F0E4CF06F0E4CF05F0E4CF5C
:1016900004F0E4CF03F0E4CF02F0E4CF01F0E4CFB4
:1016A00000F0E4CFD9FF1200D9CFE5FFE1CFD9FF99
:1016B00000C0E5FF01C0E5FF0001F86B0001F96B18
:1016C0000001FA6B7FEC11F00001F951E56E02ECBC
:1016D00010F0E652800E0001F825006E016A000E3F
:1016E000012200C0E9FF01C0EAFFEFCF00F0005087
:1016F000E56E0001FA51E56EB6EC0FF0E652E652E7
:10170000420EF66E230EF76E000EF86E0900F5CF4E
:1017100000F00900F5CF01F00150E56E0050E56ED4
:10172000000EE56E020EE56E66EC0FF0006EF3CF74
:1017300001F0040EE1260150E56E0050E56E0AEC62
:1017400011F0E652E6520001F82B0001FA2B090EC7
:101750000001FA5DD8A0B6D70001F92B030E0001F5
:10176000F95DD8A0ADD70001F86B030E0001F96F49
:101770000001FA6B7FEC11F00001F951E56E02EC0B
:1017800010F0E6529B0E0001F825006E016A000E73
:10179000012200C0E9FF01C0EAFFEFCF00F00050D6
:1017A000E56E0001FA51E56EB6EC0FF0E652E65236
:1017B000420EF66E230EF76E000EF86E0900F5CF9E
:1017C00000F00900F5CF01F00150E56E0050E56E24
:1017D0000AEC11F0E652E6520001F82B0001FA2B58
:1017E000090E0001FA5DD8A0C5D70001F92B060E3D
:1017F0000001F95DD8A0BCD70001F86B060E00010E
:10180000F96F0001FA6B7FEC11F00001F951E56E00
:1018100002EC10F0E652B60E0001F825006E016AE7
:10182000000E012200C0E9FF01C0EAFFEFCF00F087
:101830000050E56E0001FA51E56EB6EC0FF0E6528D
:10184000E652420EF66E230EF76E000EF86E090099
:10185000F5CF00F00900F5CF01F00150E56E005022
:10186000E56E0AEC11F0E652E6520001F82B000199
:10187000FA2B090E0001FA5DD8A0C5D70001F92B9B
:10188000090E0001F95DD8A0BCD7E4CF01F0E4CF88
:1018900000F0E4CFD9FF1200D9CFE5FFE1CFD9FFA7
:1018A00000C0E5FF01C0E5FF02C0E5FF03C0E5FFA2
:1018B00004C0E5FF05C0E5FF06C0E5FF07C0E5FF82
:1018C00008C0E5FF09C0E5FF0AC0E5FF0BC0E5FF62
:1018D0000CC0E5FF020EDBCF00F0030EDBCF01F002
:1018E000040EDBCF02F0050EDBCF03F0060EDBCFDC
:1018F00004F0070EDBCF05F0080EDBCF06F0090E73
:10190000DBCF07F0D88003AED890086A08360850BD
:101910000FE0031C0C6E021C0B6E011C0A6E001CF7
:10192000096E092A0DE10A2A0BE10B4A0C2A08D09C
:1019300000C009F001C00AF002C00BF003C00CF0B7
:10194000D88007AED8900FE3071C036E061C026E0A
:10195000051C016E041C006E002A0DE1012A0BE13A
:10196000024A032A08D004C000F005C001F006C0F6
:1019700002F007C003F00350E56E0250E56E01501F
:10198000E56E0050E56E0C50E56E0B50E56E0A50AA
:10199000E56E0950E56E12EC0DF0006EF3CF01F02C
:1019A000F4CF02F0E9CF03F0080EE126085016E06C
:1019B000031C076E021C066E011C056E001C046EE3
:1019C000042A04E1052A02E1064A072A07C0E9FFC2
:1019D00006C0F4FF05C0F3FF045007D003C0E9FFC1
:1019E00002C0F4FF01C0F3FF0050E4CF0CF0E4CFDD
:1019F0000BF0E4CF0AF0E4CF09F0E4CF08F0E4CF35
:101A000007F0E4CF06F0E4CF05F0E4CF04F0E4CF34
:101A100003F0E4CF02F0E4CF01F0E4CF00F0E4CF34
:101A2000D9FF1200D9CFE5FFE1CFD9FF00C0E5FF14
:101A300001C0E5FF02C0E5FF03C0E5FF04C0E5FF0C
:101A400005C0E5FF06C0E5FF07C0E5FF08C0E5FFEC
:101A500009C0E5FF0AC0E5FF020EDBCF00F0030E70
:101A6000DBCF01F0040EDBCF02F0050EDBCF03F07D
:101A7000060EDBCF04F0070EDBCF05F0080EDBCF40
:101A800006F0090EDBCF07F0086A045005100610B7
:101A9000071005E1E968F468F368E86847D0096A67
:101AA0000750800BE8440A6E0A501BE104500426DC
:101AB0000536063607360750035C08E10650025C1F
:101AC00005E10550015C02E10450005C06E2D8909B
:101AD000073206320532043204D0092A09C008F060
:101AE000DFD70750035C08E10650025C05E10550B2
:101AF000015C02E10450005C08E30450005E055004
:101B0000015A0650025A0750035AD890073206323B
:101B10000532043208C009F008060950E2E103C0AA
:101B2000E9FF02C0F4FF01C0F3FF0050E4CF0AF068
:101B3000E4CF09F0E4CF08F0E4CF07F0E4CF06F0FB
:101B4000E4CF05F0E4CF04F0E4CF03F0E4CF02F0FB
:101B5000E4CF01F0E4CF00F0E4CFD9FF1200720E21
:101B6000D36E926A936A946A7FEC11F0C1EC10F024
:101B7000006EF3CF01F0F4CF02F0E9CF03F0000ED6
:101B8000E56E000EE56E000EE56E050EE56E035087
:101B9000E56E0250E56E0150E56E0050E56E4CECCE
:101BA0000CF0006EF3CF01F0F4CF02F0E9CF03F0B8
:101BB000080EE126D88003AED890D8E20350800FFB
:101BC000800F08E1000E025C05E1000E015C02E1FD
:101BD000050E005CCBE2FA6AFB6A0034FA36E834A0
:101BE000FA36FC0BF40FE56E1B0EFA22000EFB22F8
:101BF000E450F96E04EF0EF00DEF0EF016EF0EF05C
:101C00001FEF0EF028EF0EF0000EE56E4B0EE56EA6
:101C1000DCEC03F0E652E652A9D7000EE56E040EA6
:101C2000E56E1DEC08F0E652E652A0D7000EE56E18
:101C3000020EE56E61EC06F0E652E65297D7000E12
:101C4000E56E060EE56E4DEC10F0E652E6528ED7CC
:101C5000080EE56E02EC00F0E65288D71200D9CFEC
:101C6000E5FFE1CFD9FF00C0E5FF01C0E5FF02C0FD
:101C7000E5FF03C0E5FF04C0E5FF05C0E5FF06C0C2
:101C8000E5FF020EDBCF00F0030EDBCF01F0040E08
:101C9000DBCF02F000C0E9FF01C0F3FF0250EAEC25
:101CA00010F0036EF3CF04F0F4CF05F0E9CF06F0A7
:101CB0000650E56E0550E56E0450E56E0350E56E86
:101CC000410EE56EC60EE56E4E0EE56E6D0EE56ECE
:101CD0004AEC0AF0036EF3CF04F0F4CF05F0E9CF3D
:101CE00006F0080EE126390E0326300E0422000EFF
:101CF0000522062203C0E5FF04C0F4FF05C0F6FF7D
:101D000006C0F7FF00C0E9FF01C0F3FF02506EEC10
:101D100011F0069E06C0E9FF05C0F4FF04C0F3FF02
:101D20000350E4CF06F0E4CF05F0E4CF04F0E4CFB5
:101D300003F0E4CF02F0E4CF01F0E4CF00F0E4CF11
:101D4000D9FF1200D9CFE5FFE1CFD9FF00C0E5FFF1
:101D500001C0E5FF02C0E5FF03C0E5FF04C0E5FFE9
:101D600005C0E5FF06C0E5FF020EDBCF00F0030E65
:101D7000DBCF01F0040EDBCF02F000C0E9FF01C0B1
:101D8000F3FF0250EAEC10F00001DA6FF3CFDBF062
:101D9000F4CFDCF0E9CFDDF0800EE56E000EE56EED
:101DA000DA0EE56E2FEC0EF0036EF3CF04F0F4CFF5
:101DB00005F0E9CF06F0030EE12603C0E5FF04C0FD
:101DC000F4FF05C0F6FF06C0F7FF00C0E9FF01C041
:101DD000F3FF02506EEC11F000C0E9FF01C0F3FF09
:101DE0000250EAEC10F0F3CF01F0F4CF02F0E9CFAB
:101DF00003F003C0E9FF02C0F4FF01C0F3FFE4CF2A
:101E000006F0E4CF05F0E4CF04F0E4CF03F0E4CF34
:101E100002F0E4CF01F0E4CF00F0E4CFD9FF1200EC
:101E200011EEFFF021EEFFF0F86AA68EA69CE9689D
:101E30000E0EEA6E0068ED6A0050FDE1260EF66EA9
:101E4000230EF76E000EF86E0900F5CF05F00900BD
:101E5000F5CF06F034D00900F5CF00F00900F5CF3A
:101E600001F00900F5CF02F009000900F5CFE9FF04
:101E70000900F5CFEAFF090009000900F5CF03F0DA
:101E80000900F5CF04F009000900F6CF07F0F7CFFD
:101E900008F0F8CF09F000C0F6FF01C0F7FF02C05C
:101EA000F8FF03D00900F5CFEEFF0306FBE20406BE
:101EB000F9E207C0F6FF08C0F7FF09C0F8FF050602
:101EC000CAE20606C8E2AFEC0DF0FFD7D9CFE5FFB6
:101ED000E1CFD9FF00C0E5FF01C0E5FF02C0E5FF8B
:101EE00003C0E5FF020EDBCF00F0030EDBCF01F0F5
:101EF000040EDBCF02F0050EDBCF03F00050000133
:101F0000F26F0150F36F02500001F46F0350F56F50
:101F10000001F2510001F403F4CF01F0F3CF00F01F
:101F200000500001F66F0150F76F0001F2510001FF
:101F3000F503F3CF00F00001F3510001F403F3CFF8
:101F400001F0015000260001F75100260050F76F04
:101F5000F7C0F3FFF651E4CF03F0E4CF02F0E4CF93
:101F600001F0E4CF00F0E4CFD9FF1200D9CFE5FFB4
:101F7000E1CFD9FF00C0E5FF01C0E5FF020EDBCFD6
:101F800000F0030EDBCF01F0015035E0090E005CDC
:101F900032E2FA6AFB6A0034FA36E834FA36FC0BAD
:101FA000B00FE56E1F0EFA22000EFB22E450F96E10
:101FB000EAEF0FF0ECEF0FF0EEEF0FF0F0EF0FF0B5
:101FC000F2EF0FF0F4EF0FF0F6EF0FF0F8EF0FF085
:101FD000FAEF0FF0818A0FD081880DD081860BD067
:101FE000818409D0818207D0818005D0828203D08C
:101FF000828601D08288E4CF01F0E4CF00F0E4CF04
:10200000D9FF1200D9CFE5FFE1CFD9FF00C0E5FF2E
:10201000020EDBCF00F0090E005C3AE2FA6AFB6ABE
:102020000034FA36E834FA36FC0B3A0FE56E200E2F
:10203000FA22000EFB22E450F96E2FEF10F031EF80
:1020400010F034EF10F037EF10F03AEF10F03DEFF2
:1020500010F040EF10F043EF10F046EF10F0826AFE
:1020600017D0DF0E806E14D0FB0E806E11D0BF0E25
:10207000806E0ED0EF0E806E0BD0FD0E806E08D0FD
:102080007F0E806E05D0F70E806E02D0FE0E806E41
:10209000E4CF00F0E4CFD9FF1200D9CFE5FFE1CFC4
:1020A000D9FF00C0E5FF01C0E5FF020EDBCF00F065
:1020B000030EDBCF01F00150800F800F02E1010E13
:1020C000005C2CE3140EE56E070EE56EFF0EE56E68
:1020D000FE0EE56E000EE56E000EE56E030EE56E7B
:1020E000FE0EE56E000EE56E000EE56E030EE56E6B
:1020F000FF0EE56EFF0EE56E3EEC09F00D0EE126DB
:102100007FEC11F0000EE56EFA0EE56E95EC10F026
:10211000E652E652FF0E00260122CDD7E4CF01F0B1
:10212000E4CF00F0E4CFD9FF1200D9CFE5FFE1CF33
:10213000D9FF00C0E5FF01C0E5FF020EDBCF00F0D4
:10214000030EDBCF01F00150E56E0050E56E000E8E
:10215000E56E640EE56E66EC0FF0006EF3CF01F0F5
:10216000040EE1260050011005E00000FF0E0026DD
:102170000122F8D7E4CF01F0E4CF00F0E4CFD9FF9B
:10218000120000C0E5FF01C0E5FF02C0E5FF03C08B
:10219000E5FF800EE56E000EE56ED20EE56E2FECCB
:1021A0000EF0006EF3CF01F0F4CF02F0E9CF03F0B0
:1021B000030EE12603C0E9FF02C0F4FF01C0F3FFF4
:1021C0000050E4CF03F0E4CF02F0E4CF01F0E4CF1D
:1021D00000F01200E8AE0AD0F3CFEAFFEE50EECFE7
:1021E000F3FFEECFF4FFEECFE9FF1200E8BC9DEF66
:1021F00011F0E9CFF6FFF3CFF7FFF86E0900F550C5
:102200000900F5CFF3FF0900F5CFF4FF0900F5CF82
:10221000E9FF1200D9CFE5FFE1CFD9FF00C0E5FF0C
:1022200001C0E5FF020EDBCF00F0030EDBCF01F0B3
:102230000050011005E00000FF0E00260122F8D733
:10224000E4CF01F0E4CF00F0E4CFD9FF1200F2CFE9
:10225000EAFFF29EA69EA69CA684E9CFA9FFE4CF42
:10226000A8FF8BEC11F0F4CFA8FF8BEC11F0F6CFA8
:10227000A8FF8BEC11F0F7CFA8FF8BEC11F0A69420
:10228000EABEF28E1200F2CFF6FFF29EA69EA69C48
:10229000E9CFA9FFA680A850A92AA680A8CFF3FF5E
:1022A000A92AA680A8CFF4FFA92AA680A8CFEAFF72
:1022B000F6BEF28E1200D9CFE5FFE1CFD9FF020EB4
:1022C000DBCFD2F0030EDBCFD3F0040EDBCFD4F0A4
:1022D000050EDBCFD5F0E4CFD9FF1200E8AE0BD06E
:1022E000F3CFEAFFE4CFEEFFF4CFEEFFF6CFEEFF41
:1022F000F7CFEEFF1200E8BC9FEF11F01200D9CF2C
:10230000E5FFE1CFD9FFFF0E806E816A010E826E7C
:10231000E4CFD9FF1200550EA76EAA0EA76EA682B3
:10232000A6B2FED7A94A010034230000D100000064
:102330000500000000010000000043EF11F027EF4E
:0423400011F00A008E
:020000040030CA
:0E000000FF081F1EFF0381FF0FC00FE00F401F
:00000001FF
